{
    "contractName": "BrazilianStormSportingbet",
    "abi": [
        {
            "inputs": [
                {
                    "internalType": "address",
                    "name": "_verifier",
                    "type": "address"
                }
            ],
            "stateMutability": "nonpayable",
            "type": "constructor"
        },
        {
            "anonymous": false,
            "inputs": [
                {
                    "indexed": true,
                    "internalType": "uint256",
                    "name": "groupId",
                    "type": "uint256"
                },
                {
                    "indexed": false,
                    "internalType": "uint8",
                    "name": "depth",
                    "type": "uint8"
                },
                {
                    "indexed": false,
                    "internalType": "uint256",
                    "name": "zeroValue",
                    "type": "uint256"
                }
            ],
            "name": "GroupCreated",
            "type": "event"
        },
        {
            "anonymous": false,
            "inputs": [
                {
                    "indexed": true,
                    "internalType": "uint256",
                    "name": "groupId",
                    "type": "uint256"
                },
                {
                    "indexed": false,
                    "internalType": "uint256",
                    "name": "identityCommitment",
                    "type": "uint256"
                },
                {
                    "indexed": false,
                    "internalType": "uint256",
                    "name": "root",
                    "type": "uint256"
                }
            ],
            "name": "MemberAdded",
            "type": "event"
        },
        {
            "anonymous": false,
            "inputs": [
                {
                    "indexed": true,
                    "internalType": "uint256",
                    "name": "groupId",
                    "type": "uint256"
                },
                {
                    "indexed": false,
                    "internalType": "uint256",
                    "name": "identityCommitment",
                    "type": "uint256"
                },
                {
                    "indexed": false,
                    "internalType": "uint256",
                    "name": "root",
                    "type": "uint256"
                }
            ],
            "name": "MemberRemoved",
            "type": "event"
        },
        {
            "anonymous": false,
            "inputs": [
                {
                    "indexed": false,
                    "internalType": "uint256",
                    "name": "nullifierHash",
                    "type": "uint256"
                }
            ],
            "name": "NullifierHashAdded",
            "type": "event"
        },
        {
            "inputs": [
                {
                    "internalType": "uint256",
                    "name": "groupId",
                    "type": "uint256"
                }
            ],
            "name": "getDepth",
            "outputs": [
                {
                    "internalType": "uint8",
                    "name": "",
                    "type": "uint8"
                }
            ],
            "stateMutability": "view",
            "type": "function"
        },
        {
            "inputs": [
                {
                    "internalType": "uint256",
                    "name": "groupId",
                    "type": "uint256"
                }
            ],
            "name": "getNumberOfLeaves",
            "outputs": [
                {
                    "internalType": "uint256",
                    "name": "",
                    "type": "uint256"
                }
            ],
            "stateMutability": "view",
            "type": "function"
        },
        {
            "inputs": [
                {
                    "internalType": "uint256",
                    "name": "groupId",
                    "type": "uint256"
                }
            ],
            "name": "getRoot",
            "outputs": [
                {
                    "internalType": "uint256",
                    "name": "",
                    "type": "uint256"
                }
            ],
            "stateMutability": "view",
            "type": "function"
        },
        {
            "inputs": [],
            "name": "sempahoreVerifier",
            "outputs": [
                {
                    "internalType": "contract IVerifier",
                    "name": "",
                    "type": "address"
                }
            ],
            "stateMutability": "view",
            "type": "function"
        },
        {
            "inputs": [
                {
                    "internalType": "uint256",
                    "name": "",
                    "type": "uint256"
                }
            ],
            "name": "utxos",
            "outputs": [
                {
                    "internalType": "uint256",
                    "name": "",
                    "type": "uint256"
                }
            ],
            "stateMutability": "view",
            "type": "function"
        }
    ],
    "bytecode": "608060405234801561001057600080fd5b5060405161022138038061022183398101604081905261002f9161005d565b600280546001600160a01b039092166001600160a01b0319928316179055600480549091163317905561008d565b60006020828403121561006f57600080fd5b81516001600160a01b038116811461008657600080fd5b9392505050565b6101858061009c6000396000f3fe608060405234801561001057600080fd5b50600436106100575760003560e01c806375e618c91461005c5780638064e83c1461009657806381591387146100c15780639b24b3b0146100ef578063b9c78c2b14610113575b600080fd5b61007f61006a366004610136565b60009081526001602052604090205460ff1690565b60405160ff90911681526020015b60405180910390f35b6002546100a9906001600160a01b031681565b6040516001600160a01b03909116815260200161008d565b6100e16100cf366004610136565b60036020526000908152604090205481565b60405190815260200161008d565b6100e16100fd366004610136565b6000908152600160208190526040909120015490565b6100e1610121366004610136565b60009081526001602052604090206002015490565b60006020828403121561014857600080fd5b503591905056fea2646970667358221220c3db1cafb2ddb0448d11e3a4dfac17616dcac876102b916c9c0224e50b0197a164736f6c634300080e0033",
    "sourcePath": "/mnt/6eab134e-9531-4aae-af27-1bb865d9ab86/zku/brazilian-storm-sportingbet/smart-contracts/contracts/BrazilianStormSportingbet.sol",
    "compiler": {
        "name": "solc",
        "version": "0.8.14+commit.80d49f37"
    },
    "functionHashes": {
        "getDepth(uint256)": "75e618c9",
        "getNumberOfLeaves(uint256)": "b9c78c2b",
        "getRoot(uint256)": "9b24b3b0",
        "sempahoreVerifier()": "8064e83c",
        "utxos(uint256)": "81591387"
    },
    "gasEstimates": {
        "creation": {
            "codeDepositCost": "77800",
            "executionCost": "infinite",
            "totalCost": "infinite"
        },
        "external": {
            "getDepth(uint256)": "2420",
            "getNumberOfLeaves(uint256)": "2510",
            "getRoot(uint256)": "2494",
            "sempahoreVerifier()": "2337",
            "utxos(uint256)": "2460"
        }
    }
}